:020000040000FA
:10000000000400203D1400004314000045140000CB
:10001000611400007D14000099140000000000002D
:10002000000000000000000000000000E3100000DD
:1000300000000000000000005D11000055530500A5
:10004000050D00000000000000000000D10D0000C0
:10005000BD0F0000000000009D0D0000000000002A
:100060000000000000000000000000000000000090
:100070000000000000000000090C0000000000006B
:10008000FFFFFFFFFFFFFFFFFFFFFFFFFFFFFFFF80
:10009000FFFFFFFF12FFFFFFFFFFFFFFFFFFFFFF5D
:1000A00000F002F800F0A0FD0AA090E8000C8244E5
:1000B0008344AAF10107DA4501D100F095FDAFF2C2
:1000C000090EBAE80F0013F0010F18BFFB1A43F036
:1000D000010318473C0300005C0300000A444FF092
:1000E000000C10F8013B13F0070408BF10F8014B97
:1000F0001D1108BF10F8015B641E05D010F8016BDC
:10010000641E01F8016BF9D113F0080F1EBF10F83F
:10011000014BAD1C0C1B09D16D1E58BF01F801CB62
:10012000FAD505E014F8016B01F8016B6D1EF9D5E5
:100130009142D6D370470000103A24BF78C878C1E6
:10014000FAD8520724BF30C830C144BF04680C60DD
:1001500070470000084900FB01F0084909684FEAB0
:1001600090304FEA912100FB01F05FEA901001D03E
:10017000401EFDD8704700006EA30100DC07002080
:1001800070B5049CA14D286142EA81159F4EB5616E
:100190003546EB61EC60012535620025356200BF14
:1001A0009A4DED6A15F0010FFAD170BD38B50446CD
:1001B000002534B1012C08D0022C12D0032C23D1FD
:1001C0001BE000209149086421E09048006C38B998
:1001D0000020E02302461F210090A320FFF7D0FF5C
:1001E00015E00020E02302461F210090A320FFF726
:1001F000C7FF00208549086409E00120834908649D
:1002000088640020886402E06FF0250500BF00BF0D
:10021000284638BD30B17D49896841F008017B4AE4
:10022000916005E07949896821F00801774A916079
:1002300070477648406A00F00100704708B500201A
:10024000E023024607210090FF20FFF799FF08BD39
:1002500038B500246D48006D10F0010F01D0FFF794
:10026000EDFF0020C0230246072100900520FFF784
:1002700087FF00BFFFF7DDFF0028FBD1634804685C
:100280000020C0230246072100903520FFF778FFA9
:1002900000BFFFF7CEFF0028FBD15C48056844EAA9
:1002A0000524204638BD10B5FFF7D2FF044614F0F0
:1002B000010F01D0002010BD0120FCE72DE9F8431B
:1002C00005460F4601F07AF85048006D10F0010F16
:1002D00001D0FFF7B3FF012F06D0022F06D0032F66
:1002E00006D0042F08D105E0AC7A0BE0EC7A09E0E7
:1002F0002C7B07E06C7B05E001F05EF86FF0F80006
:10030000BDE8F88300BF7F2C04D101F055F86FF0F1
:10031000F800F5E7FFF79CFF86B226F4C0764BF6AF
:100320008370064004F01F0046EA800614F0400F78
:1003300003D004F0200046EA4026344846604FF0DF
:1003400001080020E0230246072100900620FFF765
:1003500017FFA023002207210120CDF80080FFF71E
:100360000FFF0120FFF756FF00BFFFF79CFF00289B
:10037000FBD00020FFF74EFF0120FFF717FF01F031
:100380001BF80020BCE7F8B5064601F017F81F4837
:10039000006D10F0010F01D0FFF750FFFFF758FF7D
:1003A00084B224F4C0744BF683700440757A05F06F
:1003B0001F0044EA800415F0400F03D005F0200030
:1003C00044EA40241148446001270020E02302460B
:1003D000072100900620FFF7D3FEA023002207216B
:1003E00001200097FFF7CCFE0120FFF713FF00BFAD
:1003F000FFF759FF0028FBD00020FFF70BFF01207B
:10040000FFF7D4FE00F0D8FF0020F8BD00600040E8
:10041000B8D3060000000020481F0000DC000000E8
:100420008CD70600FCFF012004000000380100000A
:1004300010B503200246084B19684FF6FF03194018
:10044000064B0B4343EA0221034B196000BF07F040
:1004500007FE002010BD00000CED00E00000FA05D2
:100460002DE9FE4F0027B946A248A3490844A349F5
:10047000086008460068C01DC008C0000860084643
:1004800000689F4908449D49086018219D4801F073
:100490003AFD9A4801689C48401A9C4908609C486B
:1004A000806800F01E00022805D09948806800F09E
:1004B0001E00042802D1DFF85CA20AE0944880689C
:1004C00000F01E00062802D140F2044A01E04FF07D
:1004D000000A4FF0000ABAF1000F7AD0DAE9010100
:1004E00044180CB900BF75E0DAF8008018F0030F6B
:1004F00004D028F0030828F003000444E01CC117CE
:1005000000EB917189108C00A8F11808C1461821E0
:10051000484601F0F8FCC9F808407C48006884426D
:1005200009D92246794801687BA036F047FE6FF072
:100530000600BDE8FE8F71480068404505D808EB0D
:10054000040018307049884205D383A036F036FE87
:100550006FF01500EDE708EB040018306A49884297
:100560000ED208EB040000F118071821384601F0FC
:10057000CAFC08EB040018306349081A1838B86040
:100580005E480068A8EB0000A0F1300424F00704E6
:100590005A4805681821284601F0B5FC204604EBAE
:1005A000D0714910A960A868284400F118061821E4
:1005B000304601F0A8FC204604EBD0714910B16030
:1005C00017B1B86801E004E0002020444F490860FA
:1005D00000BF00BFBAF1000F1FD1484805681821BD
:1005E000284601F090FC494800681821C1EB5000F2
:1005F000A86042480168A86818300E1818213046D3
:1006000001F081FC414800681821C1EB5000B06046
:100610003E48006830383D4908603FB93948466077
:10062000056068602E607560306008E0354847609E
:10063000056068602E60756037607E6038603348A2
:10064000006830498860032028730C20307307B19C
:100650003873B9F1000F02D0082089F80C0005F1B9
:100660001800A96801F04FFC06F11800B16801F00C
:100670004AFC27B107F11800B96801F044FCB9F150
:10068000000F2FD04348C9F81000D9F8080000F136
:100690001804E01704EB90500294801201D03EA0A1
:1006A00000E03EA0A346E11704EB9151891207D068
:1006B000A04644464FEAE87108EB9151891200E0E8
:1006C000214609EB0403CDE9001099F80C0010F065
:1006D0000C0F01D032A000E033A001464A4634A0FE
:1006E00036F06CFD074880683D4908603D49086068
:1006F00000201EE7481F0000F0120100A80500209E
:1007000000000020702F002000000220AC05002017
:100710000050004004047C004D4D4D3A70726561FC
:100720006C6C6F63206661696C656421206E6F7408
:1007300020656E6F756768206D656D6F727928250D
:10074000642920746F206265207265717569726515
:1007500064282564290D0A004D4D4D3A707265617B
:100760006C6C6F63206661696C656421206D656DDA
:100770006F72792077696C6C206265206F76657284
:1007800077697274652064616E67696F75736C79DF
:100790000D0A0000DFBC21374B00000042000000C2
:1007A00068696768000000006C6F77200000000037
:1007B0004D4D4D3A707265616C6C6F6320257320EE
:1007C0006D656D6F7279205B3078253038582D2D2E
:1007D0003078253038585D20256425730D0A0000D7
:1007E000B0050020B405002010B500201449C1F860
:1007F0000C011448006820F4007012490860084693
:10080000006820F00100086000200AF02FF90120A4
:100810000AF02CF90B48006820F4007000F5007015
:10082000084908600846006820F00100401C086084
:1008300001200349C1F80C0103490860002010BDE4
:1008400008000A4200500040E4070020F8B50825DF
:1008500054F066FD00F0B8FC34A036F0AFFC17E0B1
:1008600039480068009000BF3749009809688842FD
:10087000FAD03548006800903448006800F0ACFCBD
:10088000314800680099401A0090009800B105E0D6
:100890002E48006840002D490860E1D100BF2B4878
:1008A0000068400829490860084604681EE0274897
:1008B000006820432549086023480068009000BF75
:1008C0002149009809688842FAD01F4800680090C2
:1008D0001E48006800F080FC1B48006800998842B0
:1008E00004D01A480068A043184908602800A5F100
:1008F000010502D060080400D9D1144800683221F3
:10090000B0FBF1F06421B0FBF1F201FB12060F48DD
:10091000006841F28831B0FBF1F70C4803683246B9
:1009200039460BA036F04AFC0020F8BD00006C6987
:1009300062726174696E672064656C6179206C6FA6
:100940006F702E2E2E0D0A0074080020DC07002088
:10095000000025642E2530326420426F676F4D49B8
:10096000505320286C706A3D2564290D0A00000050
:1009700010B5194859F029FC1748143059F025FCD6
:100980001548543059F021FC134908390846416193
:100990000020C86108468162816610480068401CDA
:1009A0000E4908600C4808380D49086041F05CFFAA
:1009B00009480838006B0B490968884204D9064881
:1009C0000838006B0749086007480068401C064962
:1009D0000860002010BD0000F807002080080020FB
:1009E00068080020840800209C08002010B5002022
:1009F000064908604021064801F085FA4FF422615B
:100A0000044801F080FA002010BD0000E01400202E
:100A100014390020BC0A00200548C0680549086058
:100A20000348006820F00100014908600020704779
:100A300000000240B004002000000000E9070000B0
:100A4000310400004D08000061040000710900003D
:100A5000ED090000190A000000000000E9CD0600C1
:100A60000600000001000000C9520500F0CD06009C
:100A700002CE060030CE0600060000000100000095
:100A80008D52050037CE060058CE06007DCE0600FA
:100A90000300000001000000E945030081CE0600CC
:100AA000ABCE060021CF06000300000002000000CC
:100AB0007106020025CF060063CF06002DD0060088
:100AC000040000000100000059FC010032D00600C3
:100AD00069D0060019D106000500000001000000E1
:100AE000A95405001FD1060053D10600B0D106005D
:100AF0000400000001000000055B0300B5D1060002
:100B0000EFD106001FB560460AF00AFC1FBD1FB5F5
:100B100060460AF05FFC84461FBD1FB560460AF0C0
:100B2000B5FC84461FBD1FB560460AF0F5FC1FBD2D
:100B30006E2901F0DB83702900F0E985662925F034
:100B40006CA7652925F069A7672925F066A76129A3
:100B500025F065A703681B0A28BF41F080016929B9
:100B600000F05A85642900F05785752900F05485F6
:100B70006F2901F0C884782900F0B585E92901F0D2
:100B80006384E42901F06084F52901F05D84EF2994
:100B900001F0C584F82900F0B4850368DB0928BF9B
:100BA00041F08001632901F0E483732901F0E983B6
:100BB000E32902F0C981F32902F0CE8100207047B9
:100BC0001FB500F092FF01F0E1FD040000200021BC
:100BD00065F0D2FA401C60600020002165F0E2FA66
:100BE000E0601FBD10B510BDDFF80CD0FFF7E8FFC7
:100BF00032F07EFB02F03CFC0004002003B4FFF75F
:100C0000F1FF03BCAFF3008010B50AF0ABF914207C
:100C100028F0A6FD40B932480068002804DD3048BD
:100C20000068401C2E4908602E48006819302D4984
:100C300008602D480068401C2B4908600AF084FABF
:100C40002948006828284AD30020274908602748F7
:100C50000068401C25490860002058F067FA0446E7
:100C60002146082029F032F921480078C0B92148EE
:100C70000078401C40B21F490870084690F90000F7
:100C80001E2822DD1C48007838B1084690F9000083
:100C90003C281ADD2AF0B8FA17E02AF0B5FA14E079
:100CA00016480068032810DB144800680C280CDC88
:100CB00013480078401C40B211490870084690F96A
:100CC0000000142801DD2AF09FFA11F003FD01282D
:100CD00001D02AF099FA2AF07DFB4BF06FFE10BD8F
:100CE00000050020A0040020A40400202C06002001
:100CF000A2150020AC040020CC070020181500200D
:100D0000AD0400202DE9F04700243CE004EB440151
:100D1000204A52F8210022F001FA0546002D00DA9F
:100D200030E005F01F01012000FA01F82E0E1F200F
:100D300000EB860000F0FF09484604F0EAFB074696
:100D400017EA080F1DD04146484604F0B7FB04EBF4
:100D50004401104A52F8210028F0C0FB04EB440083
:100D60000C4B53F8201004EB440003EB8000426866
:100D70003046904704EB4401064A52F8210028F01F
:100D8000EFFB00BF641C044800688442BEDBBDE882
:100D9000F0870000D8290020FC04002010B50AF0DC
:100DA0009BF80848006858B10748007818B9074808
:100DB00000682AF039FD054800680249096888473B
:100DC00010BD00004C05002050050020400500200B
:100DD00038B5002400210C2003F05CFF044614F019
:100DE000010F3ED02A480068B8B30AE029480088BD
:100DF000401C2849088008460088B0F5006F00DBD9
:100E00000DE024480088B0F5006F08DA2049096831
:100E1000204A1288881804F045F80128E6D000BF5F
:100E20001D480068002818DC0AF04EFB48B9002075
:100E300003460246014600904FF4F55035F06AFC37
:100E400006E000231A4619464FF4F55035F02CFE03
:100E500011480068401C1049086000210A2003F076
:100E600019FF14F01E0F11D014F0020F06D114F068
:100E7000040F03D114F0080F00D100BF002105209A
:100E800003F008FF00210A2003F004FF38BD000032
:100E9000580500205C0500206005002008B52748A3
:100EA000806910F01E0F25D02548D0F8EC0218B14B
:100EB00024A036F083F916E02148D0F8F00218B1EA
:100EC00027A036F07BF90EE01D48D0F8F40218B1E7
:100ED0002AA036F073F906E01948D0F8F80210B1EC
:100EE0002CA036F06BF901203049C1F8E0033049FD
:100EF000C1F87C021248D0F8E802C0B100BFEFF39D
:100F0000058048B90020034602460146009041F69C
:100F1000016035F0FFFB06E000231A46194641F652
:100F2000016035F0C1FD01202149C1F8740221485A
:100F3000006810B101202049086008BD0060014030
:100F400018002C42467561727420525820657272E6
:100F50006F7220696E746572727570740D0A00008C
:100F60004675617274205258206572726F72206FDC
:100F700076657272756E0D0A00000000467561722A
:100F800074205258206572726F72205061726974B9
:100F9000790D0A004675617274205258206572728C
:100FA0006F72204672616D650D0A000020002C42B0
:100FB00014002C4200072C4288062C4208B52A480F
:100FC000D0F8E802E0B101202849C1F874020021FC
:100FD000082002F099FF00BFEFF3058048B9002018
:100FE00001230246014600904FF4F85035F092FB81
:100FF00006E00123002211464FF4F85035F054FD6D
:101000001B48806910F01E0F22D01748D0F8EC0260
:1010100010B118A036F0D2F81348D0F8F00210B191
:101020001BA036F0CBF81048D0F8F40210B118A08D
:1010300036F0C4F80C48D0F8F80210B114A036F01D
:10104000BDF801201849C1F8E0030849C1F87C0245
:101050001648006830B11648006818B101201349DD
:10106000091D086008BD000018002A4214002A4229
:1010700000500140427561727420525820657272AE
:101080006F7220696E746572727570740A00000068
:101090004275617274205258206572726F72206FAF
:1010A00076657272756E0A0020002A4284062A4212
:1010B00000072A4262B6704772B6704761B6704741
:1010C00071B67047401EFDD87047000062B6704789
:1010D00072B6704761B6704771B67047401EFDD852
:1010E00070472C4B19684868B0E8F00F80F3098806
:1010F0004FF0000080F311884EF00D0E7047000095
:1011000000000000044800F108000068006880F357
:10111000088862B600DF000000ED00E00FB54FF474
:1011200080604FF000010968A1EB000101F10101AD
:101130004FF0A50211F8013B401E03D99342F9D0AC
:1011400000F101000349086003494FF48060086022
:101150000FBD00009C05002098050020EFF30980DA
:101160000C4B1A6820E9F00F506008B54FF02000D2
:1011700080F3118859F058FC4FF0000080F311887B
:10118000BDE8084019684868B0E8F00F80F30988A6
:10119000704700006808002062B6704772B670475A
:1011A00061B6704771B67047401EFDD870470000A9
:1011B00062B6704772B6704761B6704771B67047D5
:1011C000401EFDD87047000062B6704772B6704787
:1011D00061B6704771B67047401EFDD87047000079
:1011E00062B6704772B6704761B6704771B67047A5
:1011F000401EFDD87047A0E8F01F704762B67047E8
:1012000072B6704761B6704771B67047401EFDD820
:1012100070472DE9005050E800EFAEF1010E40E8B4
:1012200000EC9CF0000FF6D1BFF35F8F9EF0000F33
:1012300044BF84468847BFF35F8F00BFBDE800907E
:101240002DE9005050E800EFAEF1010E40E800EC4F
:101250009CF0000FF6D1BFF35F8F9EF0000F4ABFE6
:1012600084464FF0000C88476046BFF35F8F00BF95
:10127000BDE800902DE90050BFF35F8F00BF50E83C
:1012800000EF0EF1010E40E800EC9CF0000FF6D1EB
:10129000BFF35F8FBEF1000FDCBF84468847BDE817
:1012A00000902DE904504FF0807250E800EFAEEB53
:1012B000020E40E800EC9CF0000FF6D19EF0000F0B
:1012C0001CBF84468847BFF35F8F00BFBDE8049012
:1012D0002DE90450BFF35F8F00BF4FF0807250E8DC
:1012E00000EF964440E800EC9CF0000FF7D124BFDB
:1012F00084468847BDE80490FFF78BFF70472DE9CF
:101300000050BFF35F8F00BF50E800EF0EF1010EF9
:1013100040E800EC9CF0000FF6D19EF0000F04BFF7
:101320008C468847BDE8009062B6704772B6704739
:1013300061B6704771B67047401EFDD87047000017
:1013400062B6704772B6704761B6704771B6704743
:10135000401EFDD8704704B550E8002F40E8001249
:1013600092F0000FF8D14FF0000004BD0CB551E829
:10137000002F024441E8002393F0000FF7D11046FC
:101380000CBD0CB551E8002FA2EB000241E8002390
:1013900093F0000FF6D118460CBD0CB551E8002FA4
:1013A00022EA000241E8002393F0000FF6D10CBDC1
:1013B00062B6704772B6704761B6704771B67047D3
:1013C000401EFDD8704700000B49D1F800C04A68A4
:1013D0005CF8043B1068184442F8040B8C4528BFA5
:1013E000A1F1DC0C8A4228BFA1F1DC02C1F800C0E7
:1013F0004A6020F000407047A4310120DFF8B4D0EB
:10140000ADF5805D2C48A0F58060006801B40AF05D
:1014100061F82A4C2A4DAC4209D294E80F0030B44E
:1014200043F00103984730BC04F11004F3E7FFF7E1
:10143000C7FBDFF884D0234800470000004622485D
:101440000047FEE71EF0040F0CBFEFF30880EFF338
:1014500009802DE9F00FEFF3088126F0E8BC704712
:101460001EF0040F0CBFEFF30880EFF309802DE9A5
:10147000F00FEFF3088126F0DABC70471EF0040F7E
:101480000CBFEFF30880EFF309802DE9F00FEFF3C5
:10149000088126F0CCBC70471EF0040F0CBFEFF3A0
:1014A0000880EFF309802DE9F00FEFF3088126F0B3
:1014B000BEBC7047FCFF01200004002010040000A7
:1014C00030040000F1320300FD13000010B50446A3
:1014D00000F088FE0068005D00F0010010BD000013
:1014E0007CB51D4616460C00009001D02044401EDD
:1014F000074B7B442A4669460190304600F00FFFB7
:1015000005461CB10020694600F01CFF28467CBD42
:10151000590E00000FB41CB5084B06AA7B4469465F
:101520000090059800F0FBFE04460020694600F09C
:1015300009FF20461CBC5DF814FB0000250E0000CE
:101540000FB47CB50C0009AA009001D02044401EC5
:10155000084B7B4469460190089800F0E0FE054680
:101560001CB10020694600F0EDFE28467CBC5DF809
:1015700014FB0000F90D000070B504468569006891
:10158000C10601D5302600E02026C00707D070BD77
:10159000D4E9012130469047206A401C20626D1E2C
:1015A000F6D570BD70B5044685690078C00707D1CF
:1015B00070BDD4E9012120209047206A401C2062A0
:1015C0006D1EF6D570BD70B50C460546012A05D0D6
:1015D0002878800600D5EA69002302E0012305E0AF
:1015E0005B1C934202D2E05C0028F9D1A869E6189E
:1015F000C01AA861286A184428622846FFF7BCFF71
:1016000004E0D5E9012114F8010B9047B442F8D366
:101610002846FFF7C7FF70BD2DE9F04106460024BC
:1016200010687529314616A510D000F0F4FD002889
:1016300002DA404213A507E031688A0701D512A5F6
:1016400002E0490704D511A5012401E000F0ECFDFA
:1016500000210A2206F1240709E0B0FBF2FCB0FBEE
:10166000F2F302FB1C00303078541846491C002865
:10167000F3D123462A463046BDE8F04100F0DDBDF7
:10168000000000002D0000002B00000020000000E2
:10169000F0B40D460188090502D5214C7C4402E0D6
:1016A0001F4C7C440E34002100F1240608E002F0B7
:1016B0000F071209E75D42EA03721B097754491CC0
:1016C00052EA0307F3D102780023120704D5702DE4
:1016D00006D009B1022311342246F0BC00F0ADBDA2
:1016E00001231034F8E770B504460D462146106812
:1016F00000F09AFD024629462046BDE870400023CE
:10170000C6E7D21D22F00703D3E90023C0E7036830
:10171000126843F0200303600823C3610023B7E786
:10172000AFAF06002DE9F05F894604464FF0000A8E
:10173000DFF874B1FB44C0F820A02046E168884778
:10174000002874D0252806D0D4E901219047206ACA
:10175000401C2062F1E700265F462046E16888478A
:101760002028054607DB312D05D2781910F8200C0A
:1017700008B10643F1E7B00701D526F00406C4F826
:101780001CA00027C4F818A02A2D09D028460AF06A
:101790006DFA38B304EB8708303DC8F8185019E0EB
:1017A00059F8041B204604EB87029161E1688847E1
:1017B000012F054618D1E069002820DA26F020061E
:1017C0001DE0D8F8180000EB800005EB4000303831
:1017D000C8F818002046E168884705460AF046FA2E
:1017E0000028EED1012F0AD02E2D08D12046E16825
:1017F00088477F1C0546022F46F02006C4DBA069FF
:10180000002803DA404246F00106A061F00701D04B
:1018100026F010066C2D0BD0682D09D04C2D39D038
:101820006A2D35D0742D35D07A2D33D016E038E0BE
:10183000E1682F4620468847B842054609D16C2FFB
:1018400026D04FF48060E16806432046884705466D
:1018500004E06C2F1AD04FF4807006430DB3A5F14D
:101860004100192802D8203546F400664A46294628
:10187000204626604E46FFF75BF980B101280BD069
:10188000F61D26F0070000F1080956E74020E4E7BE
:101890008020D8E70020D6E706F104094DE7284666
:1018A00052E7206ABDE8F09F3FAF06000FB400B5D5
:1018B0008DB010A9099000910B904FF0FF300A9065
:1018C00000200C90064878440690064878446A4602
:1018D00007900F9909A800F041FE0DB05DF814FBC8
:1018E000B30C0000CB0C00002DE9FF5F1D464FF04C
:1018F000FF3B91464FF000085F46D5E90146A969D4
:1019000001987F1C8847296A824688470028F6D1BB
:10191000BAF1FF3F0CD0002E24F4C06419DD60063C
:1019200014D5BAF12B0F09D0BAF12D0F0ED103E067
:10193000584604B0BDE8F09F44F48064A96901985A
:101940007F1C8847761E8246002E02DDBAF1300FDA
:1019500003D0B9F1000F26D032E0A969761E0198B4
:101960007F1C44F400748847002E824605DDBAF1DE
:10197000780F06D0BAF1580F03D0B9F1000F10D08C
:101980001EE0B9F1000F02D0B9F1100F18D1A9690A
:10199000761E01987F1C24F400748847824610202C
:1019A00002E0082000E00A20814609E0A96908FB5E
:1019B0000908761E01987F1C44F40074884782460B
:1019C000002E05DD4946504600F0B4FD0028EDDA52
:1019D000E96901988847A00502D46FF00100A8E7E3
:1019E000E00725D1600613D5600502D5C8F10000D7
:1019F00000E0404629680A1D2A600968220501D5D1
:101A0000087015E0220701D5088011E008600FE09A
:101A10002868011D29600068210502D580F8008032
:101A200006E0210702D5A0F8008001E0C0F80080A0
:101A300038467EE770B5064600F0DCFB04680546D4
:101A400030460A22002100F002F82C6070BD2DE91A
:101A5000F04791460F4680460446002614F8015B85
:101A60002DB100F0BFFB0068405DC007F6D12B2D03
:101A700002D02D2D18D0641E4A463946204600F06B
:101A80009DFD27B13968A14201D1C7F800804FF010
:101A9000020471050BD54042002803DD00F0AAFBCB
:101AA0000460A007BDE8F08746F48066E4E70028FC
:101AB000F8DA00F09FFB04606FF00040F2E70000EE
:101AC0000B4910B5A1F17C020A4CC2E9371237214B
:101AD00006E000EB104342F82130074B00FB0340C7
:101AE0000B1EA1F10101F4DC10BD0120E8E70000AC
:101AF00044310120E119D666CD0D0100401ECAB265
:101B000010F8011F8A4202D00029F9D10020704745
:101B100010B5431E13F8014F002CFBD105E011F85E
:101B2000014B002C03F8014B03D0521EF7D20021C9
:101B3000197010BD30B505460B462A4613F8014B07
:101B400012F8010B08B1A042F8D01CB1002802D055
:101B50006D1CF1E7284630BD40EA010310B59B0734
:101B60000FD1042A0DD310C808C9121F9C42F8D007
:101B700020BA19BA884201D9012010BD4FF0FF30B8
:101B800010BD1AB1D30703D0521C07E0002010BDCE
:101B900010F8013B11F8014B1B1B07D110F8013B5A
:101BA00011F8014B1B1B01D1921EF1D1184610BD3B
:101BB00040EA0103024630B59B0710D14FF00134D3
:101BC00000E008C208C91D1B9D4315EAC41FF8D0D8
:101BD00013F0FF0102F8011B0DD01B0AF8E711F802
:101BE000013B002B02F8013B05D011F8013B002B13
:101BF00002F8013BF3D130BD2DE9F0410546904696
:101C00000E460020044600E0641C44450BD2285DCB
:101C100000F0F4FA0746305D00F0F0FA381A02D10D
:101C2000295D0029F0D1BDE8F0812DE9F0410E4693
:101C30000546002400E0641C285D00F0DFFA07463A
:101C4000305D00F0DBFA381A02D1295D0029F2D1AB
:101C5000BDE8F08110B5431C02E010F8011B71B122
:101C60008107FAD14FF0013202C88C1A8C4314EA72
:101C7000C211F9D0C01A0A0603D0C01E10BDC01A86
:101C800010BD0A0401D0801E10BD0902FCD0401E08
:101C900010BD40EA010370B59B072ED14FF001360D
:101CA000042A2AD308C810C99D1B9D43121F15EA98
:101CB000C61517D0D8B2E1B2401A50EA056110D16A
:101CC00098B2A1B2401A50EA05410AD123F07F40F0
:101CD00024F07F41401A50EA052102D1180EA0EBF2
:101CE000146070BDA342DBD018BA21BA884201D972
:101CF000012070BD4FF0FF3070BD0AB9002070BDEB
:101D000010F8013B11F8014B63B1A3420AD1521EF6
:101D100008D010F8013B11F8014B1BB1A34201D1CF
:101D2000521EEDD1181B70BD421E12F8013F002B50
:101D3000FBD111F8013B002B02F8013BF9D17047B0
:101D4000032A40F2308010F0030C00F0158011F8E7
:101D5000013BBCF1020F624498BF11F801CB00F8BF
:101D6000013B38BF11F8013BA2F1040298BF00F813
:101D700001CB38BF00F8013B11F0030300F067808E
:101D8000083AC0F0088051F8043B083A51F804CBF7
:101D9000A0E80810F5E7121D5CBF51F8043B40F8BD
:101DA000043BAFF30080D20724BF11F8013B11F8C8
:101DB00001CB48BF11F8012B24BF00F8013B00F80C
:101DC00001CB48BF00F8012B7047431A28BF9A4245
:101DD0007FF6B6AF032A1044114440F2268010F07B
:101DE000030F1EBF11F8013D521E00F8013D10F017
:101DF000030F7FF4F6AF11F0030300F04184083ABB
:101E0000C0F00B8051F8043D083A51F804CD40F879
:101E1000043D40F804CDFFF7F3BF121D5CBF51F83D
:101E2000043D40F8043DAFF30080D20724BF11F811
:101E3000013D11F801CD48BF11F8012C24BF00F875
:101E4000013D00F801CD48BF00F8012C704710B5E6
:101E5000203AC0F00B80B1E81850203AA0E81850A2
:101E6000B1E81850A0E81850BFF4F5AF5FEA027C63
:101E700024BFB1E81850A0E8185044BF18C918C0D2
:101E8000BDE810405FEA827C24BF51F8043B40F873
:101E9000043B08BF7047D20728BF31F8023B48BF58
:101EA00011F8012B28BF20F8023B48BF00F8012B96
:101EB000704702F0FF0343EA032242EA024200F0C5
:101EC00002B84FF000020429C0F0128010F0030C99
:101ED00000F01B80CCF1040CBCF1020F18BF00F81D
:101EE000012BA8BF20F8022BA1EB0C0100F00DB8CC
:101EF0005FEAC17C24BF00F8012B00F8012B48BF2A
:101F000000F8012B70474FF0000200B513469446CD
:101F10009646203922BFA0E80C50A0E80C50B1F141
:101F20002001BFF4F7AF090728BFA0E80C5048BF55
:101F30000CC05DF804EB890028BF40F8042B08BFF3
:101F4000704748BF20F8022B11F0804F18BF00F8EF
:101F5000012B704710B5044610F0030F08BF11F0B5
:101F6000030F40F015804FF0013E121FC0F20E80AB
:101F700051F8043BA3EB0E0C2CEA030C1CEACE1C1C
:101F800008BF40F8043BF0D0A1F1040102F10402C3
:101F9000521E08DB11F8013B002B00F8013BF7D182
:101FA0001146FFF78EFF204610BD00004FF0013CA8
:101FB00050F8042B51F8043B9A4221D1A2EB0C03B8
:101FC000934313EACC1317D150F8042B51F8043B78
:101FD0009A4215D1A2EB0C03934313EACC130BD115
:101FE00050F8042B51F8043B9A4209D1A2EB0C03A0
:101FF000934313EACC13DBD04FF00000704700BFCF
:10200000D01A01BAB1FA81F101F0180122FA01F0F7
:10201000CB40C1F12001DBB2C0B2C01A2CFA01F3EF
:10202000D11A914311EAC311E6D17047014900F07A
:1020300051BB0000AC31012010B503681C1404EB47
:1020400021449BB289B2194494FBF2F302FB13437F
:1020500094FBF2F401EB034393FBF2F102FB113129
:1020600093FBF2F301E05B1E11440029FBDB0160EE
:1020700003EB044010BDF0B504464FF0FF3585B0CA
:102080000068049060680290A0680390E068019086
:1020900020690090666906F18040B0F1004F7CD85D
:1020A0003C22002104A8FFF7C7FF3C22014602A8FA
:1020B000FFF7C2FF1822014603A8FFF7BDFF411E2C
:1020C00040F2B55201A8FFF7B7FF0C220746684659
:1020D0000021FFF7B1FF414B00EB870030440026A1
:1020E0007B4411E0511A01910099491C0229009189
:1020F00002D00C2908D105E0810705D00199491CBF
:10210000019101E0401C00960099019A595C9142AE
:10211000E8DD0099012906D11C2A04D1810702D0EB
:102120000221CDE90016A0F146018B293CD2DDE960
:102130000061002202E09F5C521C3944B242FADB8B
:10214000012E02DD820700D0491E40F2B55340F255
:102150006D16C21700EB927292105A4300F00303FF
:1021600003FB062283070A4400D1521E039E02EBA2
:102170004203049F06EBC303029EC3EB031306EB6B
:102180008303174E33441E149BB2C6EB0616C3EBF3
:102190000313B60007EB830300E005E006EB1346EC
:1021A00066F31F43360C02D0284605B0F0BD80C44C
:1021B000029E40C4039E40C4019E761C44F80C6BF2
:1021C000009E44E902600720521C92FBF0F600FBDF
:1021D000162084E823001846E7E70000ACA50600B7
:1021E000A039CEFD10B500F0D1FA001D10BD00BF22
:1021F000893F060000487047D831012010B50446D9
:10220000FFF7F0FF0068005DC00602D504F1200072
:1022100010BD204610BD09684A0501D540B270477F
:10222000C905FCD500B2704709684A0501D5C0B29E
:102230007047C905FCD580B270472DE9F0470D46BF
:1022400099469246044600F124080168880604D5A0
:10225000E06921F01001216000E00120A84201DDC9
:10226000471B00E00027A1697A1902EB0900081A50
:10227000A0612078C00602D42046FFF77DF9002631
:1022800008E0D4E901211AF806009047206A401CB2
:10229000761C20624E45F4DB2078C0060AD5204625
:1022A000FFF76AF906E0D4E9012130209047206A5F
:1022B000401C2062381EA7F10107F4DC07E0D4E9D6
:1022C000012118F805009047206A401C2062281E52
:1022D000A5F10105F3DC2046FFF764F9207800063C
:1022E00002D50220BDE8F0870120FBE711680268F3
:1022F000006A530501D508700AE0D30501D50880AE
:1023000006E0130603D5C217C1E9000200E0086029
:102310000120704701694A1C02610878704700B5C6
:102320008FB0CDE901310021059105497944CDE90E
:10233000031011466846FFF7F5F90FB000BD000025
:10234000E5FFFFFF0A6802F8010B0A607047D1E958
:1023500000239A4202D2531C0B601070704710B5D4
:10236000436913B1AFF3008001E0FFF72CF90120BE
:1023700010BD127800F124010A7000224A70012277
:10238000EDE711684FF0FF32E9E700002DE9FF5F4C
:1023900015468A460446DFF8AC80F8440027D8E9A1
:1023A00000103E46CDE9001010E03AF816106A46DB
:1023B00002A800F08FFF411C07D02178890603D5C1
:1023C000E269391891420DD80744761C20788006BE
:1023D00002D5E069B84205DDAE42E6DB3AF8160008
:1023E0000028E2D1A069C01BA0612046FFF7C4F815
:1023F000D8E90010CDE90010002017E03AF81810D5
:102400006A4602A800F066FFB0F1FF3F81460BD09C
:1024100000250DF1080B05E0D4E901211BF80500AA
:1024200090476D1C4D45F7D308F10100B04280463E
:10243000E4DB206A384420622046FFF7B3F8BDE8A9
:10244000FF9F0000EAA206002DE9F0418046D21D60
:1024500022F007020025D2E90002F52915A614D0C2
:10246000011E72F1000106DA0023D0EB030063EBDA
:10247000020211A608E0D8F800108B0701D50FA6BC
:1024800002E0490701D50EA601251146002408F1F6
:10249000240704E000F07EF930323A55641C50EA1B
:1024A0000102F7D12B46324621464046BDE8F041B5
:1024B000FFF7C3BE000000002D0000002B0000004D
:1024C0002000000030B4002100F1240408E002F0F4
:1024D0000705D208303542EA4372DB086554491CCF
:1024E00052EA0305F3D10468002310A2250707D59B
:1024F000A40600D421B1C46901230DA2641EC461E5
:1025000030BCFFF79ABE10B5044621461068FFF7AD
:102510008BFE02462046BDE810400023D2E7D21DC4
:1025200022F00701D1E90023CCE700000000000001
:10253000300000003A2800D2303820F02002412A32
:1025400001D3A2F13700884201D34FF0FF3070472A
:10255000026811441378016018467047D16005493C
:102560007944516104497944116200211161114695
:1025700000F0F6BCEDFFFFFF63EFFFFF426842B1E2
:10258000016811F8013B23B1521EC0E90012184640
:1025900070470121C160881E704742685AB1C36804
:1025A000016843B983688B4205D0491E521CC0E9BB
:1025B0000012002070474FF0FF3070472DE9F05FA8
:1025C000824615468B4600270AF10104B946007879
:1025D000302801D09DB113E014F8010B01277828B1
:1025E00003D0582801D045B10AE00DB1102D07D114
:1025F000002714F8010B102502E0082500E00A2549
:102600000026B0460EE005FB080005FB06F1012799
:102610001FFA80F801EB1046B6F5803F00D3B946AB
:1026200014F8010B2946FFF785FF0028EBDABBF110
:10263000000F05D00FB1641E00E05446CBF80040F7
:10264000B9F1000F06D0FFF7D5FD02210160C81EC9
:10265000BDE8F09F48EA0640FAE7431A28BF9A42CD
:102660007FF6F5AB104410F0030F11441EBF11F8B4
:10267000013D521E00F8013D10F0030F7FF4F6AF4C
:10268000103AC0F00A8010B531E91850103A20E92C
:102690001850BFF4F9AFBDE81040530724BF31E92B
:1026A000081020E9081044BF51F8043D40F8043DEB
:1026B00012F0030F08BF7047D20728BF31F8023D60
:1026C00048BF11F8012C28BF20F8023D48BF00F890
:1026D000012C704770B50C46016800204A1C3ED0A2
:1026E0003C22B1FBF2F302FB1313B1FBF2F12360C6
:1026F000B1FBF2F302FB1313B1FBF2F1182263609A
:10270000B1FBF2F302FB1313B1FBF2F146F2E0323C
:102710000A440721A360B2FBF1F301FB132140F24D
:10272000B553B2FBF3F5A161B2FBF3F103FB152244
:102730008900B2F5B77F08D39B10521EB2FBF3F5A8
:102740002944B2FBF3F503FB15220F4BE2616161F3
:1027500089077B440CD03B2A0AD3521C08E02C2169
:102760002046FFF7D0FB0120E0600AE0521A401C2F
:10277000195C9142FAD9521CC4E903204FF0FF3092
:102780002062204670BD00003A9F06000048704756
:10279000F831012030B5B0F10A024FEA900E71F124
:1027A00000034EEA817EB0EB0E0061EB91014FEA2F
:1027B000101E4EEA017E10EB0E0041EB11114FEAA4
:1027C000102E4EEA016E10EB0E0041EB11214FEA84
:1027D000104E4EEA014E10EB0E0041EB1141401835
:1027E00041F100014FEAD00040EA41704FEAD101C7
:1027F00010EB80054FEA810444EA907444EB010435
:102800006D1944EB0404521BA3414FF0000348BF71
:102810000A3200D530BD401C41F1000130BD704787
:102820002DE9FF4F0C461E464FF0FF378BB0D2E923
:102830000001DDF860800A908A46C1F30A5505B9A7
:102840003D46002108464FF00000BAF1000F00F4A9
:10285000400005DA00EB80004FF4400101EA50002F
:102860004FEA9059B9F1010F00DDB9460A9850EAD4
:102870004A000ED044F61050A5F2FF3545432F1400
:10288000B8F1000F1ED07542291E1EDDC9F10002ED
:102890001CE0B8F1010F4FF0000001D0302103E03F
:1028A000F24305E02154401CB042FBDB30460022DD
:1028B000002121540B99C1F80880C1E900200FB014
:1028C000BDE8F08FBD1B6D1CDEE74A4600DA6942A9
:1028D00006A800F05FFD06AB93E8070003AB83E8B2
:1028E000070050460A9900F0CCFD8DE80700A0F5DE
:1028F00000501F3800900398002D09DD42F21F019F
:102900004A46084403A90390684601F02BF808E002
:10291000A0F500504A461F3803A90390684601F00D
:1029200035F88DE807000004000C03D04FF0FF30AD
:10293000410800E01046B8F1000F03D000220092D9
:1029400015461EE0751E05D4FFF724FF3032625590
:102950006D1EF9D5B3460122084302D000227F1C28
:1029600004E02078302801D100227F1E002A099738
:1029700086D01DE0112D07DAFFF70CFF30326255CB
:102980006D1C50EA0102F5D1084302D00098C8B18D
:102990000EE00021681E05E0235C625C6354225453
:1029A000401E491C8142F7DBAB46A81B401E099024
:1029B000002004F80B000B98099AC0F80880C0E9C1
:1029C000002B7CE711264FF0000859E72DE9F04F66
:1029D00088460446D21D22F0070191B0D1E90001DA
:1029E000CDE90A0108F006FC02460B98C00F01D0A1
:1029F0002D2007E02068810701D52B2002E020214F
:102A000001EAC000032A099001D0072A05DB03462A
:102A10004146204600F07EFC0BE12078800601D57F
:102A2000E06900E00620B8F1650F814606D0B8F1F4
:102A3000660F18D0B8F1670F70D131E00020B9F1FE
:102A4000110F009001DB112301E009F101030AAA33
:102A500001A90CA8FFF7E4FEDDE90C70002609F1DE
:102A60000105834647E001204B4600904FF00047A8
:102A70000AAA01A90CA8FFF7D3FEDDE90DB00C9955
:102A80005D46002610B909F101000D18B9EB0500EB
:102A900003D4C0F1FF3609F10105A5EB09002BE0D5
:102AA000B9F1010F01DA4FF001090020B9F1110F5E
:102AB0000090484601DD112300E003460AAA01A95F
:102AC0000CA8FFF7ADFEDDE90C704D4600268346ED
:102AD000207800070AD4AB4500DA5D4601A8012D35
:102AE00004DD411911F8011C302907D04F4502DAE5
:102AF00017F1040F04DA012082460FE06D1EEEE7A5
:102B0000002F02DCED1B3E4403E0781CA84200DDF0
:102B10007D1CB81B00F1010A4FF000472078000728
:102B200003D4AA4501DB4FF0FF3A0021B7F1004F73
:102B30000DF143088DF8431024D002202B23002FE1
:102B400001DA7F422D230A21021EA0F1010000DCE0
:102B50005FB197FBF1FC97FBF1F201FB1C7C174680
:102B60000CF1300C08F801CDEEE7A8F1010003707C
:102B70002188090501D5452100E06521A0F1010862
:102B800000F8011C09980FA9A1EB0807FF1D00B16F
:102B90000120411901EBEA70A1693844081A401E6E
:102BA000A0612078C00602D42046FEF7E5FC099813
:102BB00028B1D4E901219047206A401C2062207886
:102BC000C00622D52046FEF7D7FC1EE0002E04DB0F
:102BD000B34502DD01A8805D00E03020D4E9012189
:102BE0009047206A401C2062761CAAF101005FEA2F
:102BF000000A0AD1FFF7CAFDC0680168405CD4E949
:102C000001219047206A401C2062281EA5F1010581
:102C1000DCDC07E0D4E9012118F8010B9047206AB9
:102C2000401C2062381EA7F10107F3DC2046FEF7A6
:102C3000B9FC032011B043E62DE9F04F04460D46E0
:102C4000D21D22F0070089B0D0E9009748463946E6
:102C500008F0D0FA0246F80F01D02D2307E02068D3
:102C6000810701D52B2302E0202101EAC0038DF862
:102C700020300BB1012000E00020032A824601D061
:102C8000072A04DB2946204600F044FB3FE1207878
:102C9000800601D40D2500E0E569C7F30A560D2D25
:102CA00049DA00214FEA175B08464FF00000002F79
:102CB00000F4400007DA00EB80004FF4400100EB25
:102CC000D07001EA60008115012901DD4FF0FF316C
:102CD00000224FEA850CBCF1180F06D31346ACF165
:102CE00018004FF08052C24003E04FF4801323FAE3
:102CF0000CF30CF10C0CBCF1200F04D3ACF1200C44
:102D000009FA0CF001E007FA0CF000294FF0004836
:102D100001DD18B90FE00ED140450CD319EB0209C3
:102D20005F4121B9404502D19F4329EA0209BBEB2B
:102D3000175F00D0761C2088000502D57B487844B8
:102D400002E07A487844193808AA302302F80A3099
:102D5000037C0AF10101002E0AF1020A53546A466B
:102D600002DC4FF0300101E04FF031014FF001087B
:102D70008DF8001002D0A6F2FF3603E059EA4701B1
:102D800000D06B4E002D02DC2178090704D54FF0EE
:102D900002082E218DF80110C44600210BE0C7F374
:102DA00003433F01C35C491C6D1E02F8083005292E
:102DB00008F1010801DA002DF1DC00210CE000EB44
:102DC0001973491C1B786D1E082902F808304FEA58
:102DD000091908F1010801DA002DF0DC21688B06E1
:102DE00002D516E0A8F10108E04505DD02EB080375
:102DF00013F8013C302BF5D0B8F1000F09DD02EBE0
:102E0000080313F8013C2E2B03D1090701D4A8F1C4
:102E10000108002D05DD3E2102F808106D1E08F1A5
:102E20000108407C002E02F8080008F1010804DACD
:102E30002D20764202F8080002E02B2002F808005C
:102E40000A214FF47A70864208F101080BDB96FBE9
:102E5000F0F3303302F8083096FBF0F308F1010884
:102E600000FB136601E0642E0CDB642096FBF0F39C
:102E7000303302F8083096FBF0F308F1010800FB4C
:102E8000136601E00A2E06DB96FBF1F0303002F803
:102E9000080008F1010896FBF1F001FB10603030EA
:102EA00002F80800A16908F1010808EB050202EB2D
:102EB0000A00081AA0612078C00602D42046FEF756
:102EC0005BFB216A08AE01EB0A00206204E0D4E952
:102ED000012116F8010B9047BAF1010AF7D22078C8
:102EE000C00602D52046FEF747FB6E4609E016F8FD
:102EF000010B3E280FD0D4E901219047206A401CE5
:102F00002062B8F10108F2D22046FEF74BFB09B06F
:102F10000320BDE8F08F206A2844206203E0D4E952
:102F20000121302090476D1EEBD3F8E76D99060024
:102F300002FCFFFF10B5436913B1AFF3008001E05D
:102F4000FFF724FA012010BD128800F124018284C9
:102F50000022C2840122EDE711684FF0FF32E9E759
:102F60002DE9F34F4FF0000A0C4656468DB0012074
:102F70000C9001F10C000B9062690B9801219047B5
:102F8000051E2DD0252D2CD0216A8847C0B162693D
:102F90000B9801219047216A88470028F7D1626980
:102FA000411E0B98904700E0761CA1690D98884758
:102FB000216A88470028F7D1E1690D988847DBE747
:102FC000A1690D988847A842074601D1761CD3E72E
:102FD000E1690D9888477F1C02D1BAF1000F6FD0CC
:102FE0006BE162690B9800273D46394690472A28D5
:102FF00004D162690B98012190470125DFF8D08246
:1030000062690B9801219047A0F130010A290AD288
:103010004745E5DC07EB870100EB4107303FDFD494
:1030200045F01005ECE7E90601D46FF000476C2885
:103030000AD04C2814D0682815D06A280DD07428DE
:103040001CD07A281AD01DE062690B9801219047A4
:103050006C2802D045F0040514E045F002050DE0AF
:1030600045F020050AE062690B9801219047682825
:1030700002D045F0080505E045F4006562690B984B
:1030800001219047C4E9015765283DD019DC582833
:103090007AD00CDC452837D004DC252826D04128FE
:1030A0009ED131E046282FD0472899D12CE05B28CB
:1030B00077D0612828D063287CD0642823D15AE0B7
:1030C000F6E06F2848D008DC66281DD067281BD0A2
:1030D000692821D06E2816D127E0702845D07328A2
:1030E00068D0752847D078280DD14DE0A1690D989A
:1030F0008847252805463FF469AFE1690D98884760
:103100006D1C3FF46AAFD8E00D9923466A466FF014
:103110000100AFF30080C5E045F0400023464FF0CA
:1031200000026060A80736D43EE0E8077FF447AFAE
:103130002068011D21600068290501D506701BE784
:10314000290701D5068017E7A90703D5F117C0E9BC
:10315000006111E706600FE745F0400023464FF09D
:1031600008026060A80716D41EE040F60E0125EAAA
:103170000100606016E045F0400023464FF00A026F
:103180006060A80707D40FE045F040006060A80722
:1031900008D5234610220D996FF00100AFF300808F
:1031A00080E007E0102223460D996FF00100FEF742
:1031B0009BFB77E04FF0000963284F46C8464B461B
:1031C000CB4602D05B2806D038E0E80601D40120C7
:1031D000A060012732E06269D4F80CB00B9801219D
:1031E00090475E2807D14FF0010949466269D4F83B
:1031F0000CB00B989047216939B900210A4603ABFE
:1032000043F82120491C0829FADBD8B3216949B3C6
:1032100008F1010862690B98012190475D28F4D1FB
:10322000B9F1000F09D0002003A951F82020D243A2
:1032300041F82020401C0828F7DB03AB2069002858
:1032400020794FEA40701ED05B462246CDF80080C0
:10325000CDE901970D9900286FF0010020DAAFF356
:1032600000801FE0C11703AA00EBD1614B1121F0D0
:103270001F0102EB8302411A1368012088400343B7
:103280001360C7E719E00D99224600286FF001008E
:10329000009702DAAFF3008004E0AFF3008001E0B2
:1032A000AFF3008000280ADA401C06D10C9820B148
:1032B0004FF0FF300FB0BDE8F08F5046FAE7E90756
:1032C00001D10AF1010A064400200C9054E60000E6
:1032D000CCCCCC0C70B516460C460546FEF782FFEA
:1032E000036893F80101012806D0FF2C0FD8185D60
:1032F00068B101202C7070BDD3F807013246214619
:1033000003F2071303442846BDE8704018474FF006
:10331000FF3070BD2DE9F0411F46044603260168C9
:10332000072A01F4006004DB08B116A505E016A524
:1033300003E008B115A500E015A521F010002060FC
:10334000A069C01EA0610FB1401EA0612046FEF71B
:1033500013F94FB1D4E9012138469047206A401C47
:103360002062C01C206206E0206AFAE7D4E901214D
:1033700015F8010B9047761EF8D22046FEF712F999
:10338000BDE8F0814E414E006E616E00494E460030
:10339000696E66002DE9F047814616468AB03348CB
:1033A00078440DC88DE80D0030487844801C03AC8B
:1033B0000DC884E80D0041F69B300844372190FB8E
:1033C000F1F290FBF1F5A5F1800501FB12041B3C25
:1033D00002D56442012000E00020DFF890A0804682
:1033E0000027FA44AAF1BE0A0DE0E00709D03246F0
:1033F000684607EB47010AEB810100F0C7FA8DE848
:10340000070064107F1C002CEFD1184F7F44AC3FA5
:1034100018E0E80714D007EB04100DF1180A90E843
:103420000E008AE80E00C068F04201D19819089099
:10343000324606A903A800F0A9FA03AB83E8070007
:103440006D10641C002DE4D132466946B8F1000FBE
:1034500003A802D000F086FA01E000F097FAC9E96B
:103460000001C9F808200AB0BDE8F0879C93060067
:1034700010B50446AFF300802046BDE81040FDF7CC
:10348000BDBB5FEA400C08BF91F0000F4FEA8C23F0
:103490004FEAC12243EA51514FEA1C5018BF00F5D0
:1034A000F0404FEA300018BF41F000415FEA6C5C29
:1034B00000F02980BCF1FF3F08BF40F0804070471A
:1034C000130C06BF12044FF0100C4FF0000C130E3B
:1034D00004BF12020CF1080C130F04BF12010CF10F
:1034E000040C930F04BF92000CF1020CD30F04BF25
:1034F00052000CF1010C11464FF00002A0F11F0028
:10350000A0EB0C00704711F0004F08BF704731F07E
:1035100000413FF4D5AF0B0C06BF09044FF0100C6F
:103520004FF0000C0B0E04BF09020CF1080C0B0F3E
:1035300004BF09010CF1040C8B0F04BF89000CF1CE
:10354000020CCB0F04BF49000CF1010CCCF120039D
:10355000A0EB0C0022FA03F302FA0CF241EA030199
:1035600000F10100704720F07F4C80EA030023F057
:103570007F47ACEB070303F57C5300F0004003F1F9
:10358000FF032DE980494FEA154B09B44FEA144374
:1035900025EA0B4E24EA03480FF2042606EB132714
:1035A00049083E785FEA320203FB0667C7F5000769
:1035B00007FB06F64FEA54374FEAD64606F10206F5
:1035C00007FB066CCCF1005C4FEA1C472CEA074C69
:1035D00007FB06F40CFB06F504EB15464FEA9616BE
:1035E00034BF00204FF000404FEAD13706FB07FC04
:1035F0004FEA1C4C0CFB0BF7D21B03FB0CF761EBE7
:1036000007010CFB0EF7B0EB074072EB17420CFB07
:1036100008F734BFA2EB0742B2EB074261EB174158
:103620004FEA0C444FEA910706FB07FC4FEA1C4C9B
:103630000CFB0BF7B0EBC74072EB573203FB0CF7F8
:1036400034BFA2EBC742B2EBC74261EB57310CFB70
:103650000EF7B0EBC70072EB57720CFB08F734BFE4
:10366000A2EBC702B2EBC70261EB5771039F4FEAAF
:10367000816141EA921104EBCC044FEAD1374FEA61
:10368000826206FB07FC42EA90124FEA80604FEA32
:103690001C4C0CFB0BF7D21B03FB0CF761EB070177
:1036A0000CFB0EF7B0EB074072EB17420CFB08F770
:1036B00034BFA2EB0742B2EB074261EB17414FEA7E
:1036C0008C554FEA910704EB9C2406FB07FC4FEA5C
:1036D0001C4C0CFB0BF7B0EBC74072EB573203FBF3
:1036E0000CF734BFA2EBC742B2EBC74261EB5731D4
:1036F0000CFB0EF7B0EBC70072EB57720CFB08F730
:1037000034BFA2EBC702B2EBC70261EB577115EBF6
:103710004C254FEA816141EA92114FEA82624FEAF9
:10372000D13742EA901206FB07FC44F100044FEA4D
:1037300080604FEA1C4C0CFB0BF7D21B03FB0CF711
:1037400061EB07010CFB0EF7B0EB074072EB174281
:103750000CFB08F734BFA2EB0742B2EB074261EB68
:10376000174115EB1C154FEA813141EA92414FEAAE
:10377000823242EA90424FEA80304FEA0C7644F1BE
:10378000000448EA03434EEA0B484FF0000EB2EB48
:10379000080C71EB030724BF624639464EEB0E0E50
:1037A0004FF0000B0018524149414BEB0B0BB2EBB1
:1037B000080C71EB03077BF1000B24BF624639460E
:1037C0004EEB0E0E4FF0000B0018524149414BEBEF
:1037D0000B0BB2EB080C71EB03077BF1000B24BF62
:1037E000624639464EEB0E0E51EA020718BF46F00C
:1037F000010616EB0E7655F1000254F1000103D5D7
:10380000BDE88901BDE80088BDE88901BDE8004840
:10381000B619524141EB0101A3F1010370478080C9
:103820007F7E7D7C7B7A797877767675747372711A
:1038300071706F6E6E6D6C6C6B6A6A6968686766D2
:1038400066656464636362616160605F5F5E5E5D64
:103850005D5C5C5B5B5A5A595958585757565655D8
:1038600055555454535352525251515050504F4F3A
:103870004F4E4E4D4D4D4C4C4C4B4B4B4A4A4A498A
:1038800049494848484747474746464645454544CD
:103890004444444343434342424242414141002B5A
:1038A00026D4770021D01CB54FEA370703B44FF078
:1038B00010004FF010014FF000000FBCBDE81040A9
:1038C0000BF1010BBBF1010F08BF5FEA170722BF25
:1038D00012F1010211F101014FF0004143F1000327
:1038E00000F0004043EA00007047F9D35708DAE7D8
:1038F00046EA064613F1400F4FEA16461FDD13F164
:10390000200FDFBF16430A46002120335B42C8D098
:10391000C3F1200746EA064602FA07F74FEA1646C1
:1039200046EA0706C3F1200722FA03F201FA07F775
:1039300021FA03F14FF0000342EA0702B1E746EA39
:10394000020646EA06464FEA164646EA0106BCBFAC
:1039500046EA0646360C4FF000034FF000024FF0E7
:1039600000019EE72DE9C048934630B491E8380045
:1039700007C831EA400C48BF34EA430C03D5FFF7CF
:10398000F2FDFFF78CFFF0BCBDE800882DE9C048D0
:10399000934630B491E8380007C810F0804F08BF54
:1039A00013F0804F03D100F005F8FFF778FFF0BC6B
:1039B000BDE8008820F07F4780EA030023F07F4CB9
:1039C00007EB0C03A3F57C5300F00040A3F1FE03CA
:1039D00092F0000F00F0B38095F0000F00F07780B8
:1039E0002DE901494FEA11404FEA144621EA004807
:1039F00000FB06FC24EA064708FB06F607FB08F86E
:103A000000FB07F718EB06484CEB164C4FEA124B3D
:103A100018EB07484FEA15464CEB174022EA0B4ECD
:103A20000BFB06FC25EA06470EFB06F607FB0EFE1F
:103A30000BFB07F71EEB064E4CEB164C4FF0000647
:103A40001EEB074E4CEB174B18EB0B0840F1000038
:103A500018EB0E0B58EB000840F100008F1A4FF0E6
:103A600000013CBFC943661B14BFB5EB040C002129
:103A70003CBFC943F61B4FEA17444EEA8E0E27EAB5
:103A800004454FEA1C4704FB07622CEA074C05FB80
:103A900007F70CFB05F604FB0CFC16EB074642EBA4
:103AA000174216EB0C4642EB1C421BEB060658EB8A
:103AB0000202414146EA9E0601D5BDE80189B619D8
:103AC000524141EB0101A3F10103BDE801894FEA35
:103AD00014454FEA114724EA054621EA074C05FB45
:103AE00007F406FB07F70CFB06F105FB0CFC11EBDA
:103AF000074144EB17444FEA124711EB0C4144EBEA
:103B00001C4422EA074C05FB07F206FB07F70CFBF7
:103B100006F605FB0CFC16EB074642EB174216EBCC
:103B20000C4642EB1C456A1854F1000148BF70472F
:103B3000B619524141EB0101A3F10103704795F021
:103B4000000F37D04FEA11424FEA144721EA0246EC
:103B500024EA074C02FB07F106FB07F70CFB06F40F
:103B600002FB0CFC14EB074441EB17414FEA1547ED
:103B700014EB0C4441EB1C4125EA074C02FB07F512
:103B800006FB07F70CFB06F602FB0CFC16EB0746E0
:103B900045EB174516EB0C4645EB1C42121951F14B
:103BA000000148BF7047B619524141EB0101A3F132
:103BB000010370474FEA14454FEA114724EA0546CE
:103BC00021EA074C05FB07F106FB07F70CFB06F2A1
:103BD0004FF0000605FB0CFC12EB074241EB1741CE
:103BE00012EB0C4251EB1C4148BF7047921841EB5D
:103BF0000101A3F1010370472DE9F04180460F4612
:103C000015461E46002D54D06889C82801DDC724FA
:103C100000E06C89C8212848FEF753F9224626485F
:103C2000696804F0F5F828463DF006FA22490819BB
:103C30000422314604F0ECF81F492144081D0222F9
:103C400006A904F0E5F8C82322461B49082026F0FF
:103C50007BF880B2040001D1BDE8F081224617A1B3
:103C60001548FDF779FF20B90D2C02D130684FF0CF
:103C70009BFF164890F900000F2809DB134890F9C4
:103C80000000122804DC21460B4821F017FEE3E770
:103C90000F4831680160214607480CF001FA40B135
:103CA0000C480760BDF818000B49088002482FF047
:103CB0007DF800BFD0E70000A0320020736D617274
:103CC000746C696E6B66696E640000008407002086
:103CD00060060020500600205606002070B50446FD
:103CE0000D460CB9204670BD0DB92046FBE70021FA
:103CF000606927F03EFBA06810B9A560256002E06E
:103D0000A0680560A560A089401CA081606927F0BB
:103D100029FB2046E7E7000070B504460D4604F095
:103D2000CFFC204820A10268032002F039F91D4889
:103D30000068C0B1E0001B490968B1FBF0F0401E0B
:103D40001F494860E00017490968B1FBF0F200FB29
:103D50001210C000E100B0FBF1F01949496841EAD6
:103D60000040174948600F480068C0B1E8000D499D
:103D70000968B1FBF0F0401E12494860E8000949AB
:103D80000968B1FBF0F200FB1210C000E900B0FBC3
:103D9000F1F00C49496841EA00400A4948600020B6
:103DA00070BD000090040020524334384D487A43DF
:103DB000616C69537973436C6B3D25640A000000A4
:103DC00000600140005001407CB504460A4808F0FC
:103DD000B6FD05466946042032F06EF92146684674
:103DE00031F024FE6946062032F066F92946024881
:103DF00008F0BDFD7CBD0000F40800201CB50A4899
:103E000008F09DFD04466946042032F055F96846E5
:103E100031F02CFE6946062032F04EF92146024868
:103E200008F0A5FD1CBD0000F408002030B50246D6
:103E30000020002304E012F8014B60405C1CE3B258
:103E40008B42F8DB30BD0000F0B504460020B4F52D
:103E5000004F0DDAB1F5004F0ADCB2F5004F07DC78
:103E60008D18B5F5004F03DC994201DB012B02DA16
:103E70004FF0FF3034E01B4D2D6864F30E05194EF2
:103E80003560194D2D6864F30E05174E35604D1ED3
:103E9000164E366865F30E06144D2E605D1E144EE8
:103EA000366865F30E06124D2E600125114E356001
:103EB0006618114D2D6866F30E050F4E35606618B5
:103EC0000E4D2D6866F30E050C4E3560551E0C4EDA
:103ED000366865F30E060A4D2E600125094E3560E1
:103EE000F0BD00006850014054500140585001405E
:103EF0005C500140000C2A42745001407C5001404B
:103F00007850014000102A422DE9F04105460C4648
:103F100000271A2D71D2DFE805F0ED0D1C3A3FEDB8
:103F2000464C515969715F64767B82878E939A9E65
:103F3000CFDEC1C67348006880B2461C7148006875
:103F4000C0F3024000EBC60600F0ECFFB0FBF6F752
:103F5000D3E000F0E7FFE100B0FBF1F0401E69495B
:103F6000096860F30F016748016000F0DBFFE100C2
:103F7000B0FBF1F201FB1200C000E100B0FBF1F177
:103F80006048006861F312405E490860B5E05E4831
:103F9000006800F00307B0E05B48006864F30100CC
:103FA00059490860A9E004F001005849C1F86C02C1
:103FB000A3E004F00100564908609EE004F001000F
:103FC0005249C1F87802C1F8700296E004F001008D
:103FD0004F49091D086090E04E48806900F01F07B6
:103FE0008BE04C48806B00F0030786E001204749D6
:103FF000C1F87402C1F87C027FE07BE001204449F3
:104000000831086079E044480068C0F30E0774E0A6
:104010004148006864F30E003F4908606DE03F4886
:104020000068C0F30E0768E03C48006864F30E00C7
:104030003A49086061E03A480068C0F30E075CE066
:104040003748006864F30E003549086055E00120E8
:104050003449086051E034480068C0F30E00334929
:104060000968C1F30E01401A31490968C1F30E0114
:104070002E4A1268C2F30E02891A411A26480068B5
:10408000C0F30E00401C014423480068C0F30E003A
:10409000401C91FBF0F200FB12172EE004F001002F
:1040A0002449886129E0204800682149096860F3B3
:1040B0000E011F48016020E044B104F00300401EDF
:1040C0001D4908600120091F086003E000201A490B
:1040D000091F086011E044B104F00300401E1749B5
:1040E00008600120091F086003E000201349091F30
:1040F000086002E04FF0FF3700BF00BF3846BDE860
:10410000F0810000045001401C50014014002A427C
:1041100080062A4200500140585001405C50014046
:104120007850014000102A42645001405450014030
:104130006850014000002A42040A2A42040E2A4222
:104140002DE9F04104460D4616461F46B4F5167F8C
:104150000AD33448844207D8052D05DB082D03DC3B
:10416000022E01DC022F03DD4FF0FF30BDE8F081AD
:10417000681F2D49096860F301012B4801602EB1C9
:1041800001202A498860701EC86004E00120274988
:10419000886000208860781E2449086101204861F9
:1041A00000F0C0FEE100B0FBF1F0401E20490968BC
:1041B00060F30F011E48016000F0B4FEE100B0FBA7
:1041C000F1F201FB1200C000E100B0FBF1F1184870
:1041D000006861F31240164908601648006840F014
:1041E0000800144908600120104988610420012159
:1041F000814042094FF0E02303EB8202C2F8001134
:1042000000BF00200C49C1F870020C4908600A493F
:10421000C1F878020120C1F86C020849091F086042
:104220000020A3E7C0C62D000050014000002A4234
:10423000045001400090014014002A4284062A42A2
:104240002DE9F74F82B080460F46002400F06AFE49
:10425000C60000210120FFF757FEB6FBF0F00090EA
:104260000DF05EF9049900EB010A00BF009801907F
:104270008AE064480068C0F30E0563480068C0F334
:104280000E0962480068C0F30E00A9EB00005F4908
:104290000968C1F30E01691A411A5D480068C0F34C
:1042A0000E00401C01445A480068C0F30E00401C38
:1042B00091FBF0F200FB1216002E62DD381BB042BB
:1042C00001D9304600E0381B0646A9EB050000285E
:1042D0000CDC4E480068C0F30E004D490968C1F37C
:1042E0000E010844401C401BB04207DB08EB0400F1
:1042F000324648492944FDF723FD23E0434800683E
:10430000C0F30E0042490968C1F30E010844401C85
:10431000A0EB050B08EB04005A463E492944FDF783
:104320000FFDA6EB0B02394B1B68C3F30E03DFF83E
:10433000E4C003EB0C0104EB0B0303EB0800FDF7F7
:10434000FFFC00BFA81931490968C1F30E01411AE9
:104350002F480068C0F30E00401C91FBF0F200FBF8
:1043600012102A490968C1F30E01084485B2254894
:10437000006865F30E0023490860344400980190FA
:1043800002E00198401E0190019810B1BC42FFF478
:1043900070AFA74200D128E00DF0C2F8B0EB0A00E0
:1043A0001AD50DF0BDF8AAEB0000049001210820F9
:1043B000FFF7AAFD41F6FF70FFF706FD00BFEFF320
:1043C000058028B900210846049A32F07DF800E003
:1043D00000BFFFF713FD00E000BFBC4205D20DF0A7
:1043E0009FF8B0EB0A003FF541AF00BF0121082064
:1043F000FFF78AFD24B94FF0FF3005B0BDE8F08F1C
:104400002046FAE768500140645001405450014092
:1044100058500140008001202DE9F04705468946AB
:1044200000248E48806900287BD08D480068C0F346
:104430000E00B9FBF0F669E08A48806B00B965E0D0
:1044400089480068C0F30E0A88480068C0F30E0768
:1044500087480068C0F30E0050450FD1804B1B68A1
:10446000C3F30E022919824B1B68C3F30E03DFF856
:1044700004C203EB0C00FDF763FC24E07C480068F9
:10448000C0F30E0076490968C1F30E010844401CD0
:10449000A0EB0A082919424676485044FDF750FC23
:1044A0006F4B1B68C3F30E03A3EB080204EB080376
:1044B00059196F4B1B68C3F30E03DFF8B8C103EB48
:1044C0000C00FDF73DFC66480068C0F30E00384460
:1044D00067490968C1F30E01411A61480068C0F3D9
:1044E0000E00401C91FBF0F200FB121160480068C6
:1044F00001445E48006861F30E005C49086058485A
:104500000068C0F30E000444761E00BF002E93D155
:1045100053480068C0F30E00B9FBF0F100FB1196A0
:1045200075E077E050480068C0F30E0A4F48006815
:10453000C0F30E074A480068C0F30E004C490968F2
:10454000C1F30E01AAEB0101084449490968C1F30E
:104550000E01791A411A42480068C0F30E00401C4F
:1045600091FBF0F200FB1218B04500D24FE040483A
:104570000068C0F30E003A490968C1F30E0108440F
:10458000401CB919884206D32919324639483844A3
:10459000FDF7D6FB20E036480068C0F30E00304936
:1045A0000968C1F30E010844401CA0EB0708291953
:1045B000424630483844FDF7C3FBA6EB080204EB43
:1045C000080359192A4B1B68C3F30E03DFF8A4C074
:1045D00003EB0C00FDF7B4FBB81925490968C1F3DA
:1045E0000E01411A1E480068C0F30E00401CB1FBCA
:1045F000F0F200FB12111E48006801441B480068DD
:1046000061F30E00194908603444002600BF002EF3
:1046100088D11BE004E02046641C285C164908632E
:104620001648006808B94C45F5D3012014490860C4
:104630000AE004E02046641C285C0F4908630F4828
:10464000006808B94C45F5D34C45F2D301200C491C
:10465000083108602046BDE8F087000000002A42CB
:104660007850014084102A42845001407C5001401F
:1046700074500140008001200050014004082A428B
:1046800080062A422DE9F04F8DB006464FF0000813
:1046900000254FF4C019344606F1320A00232822BF
:1046A000314648461EF028FB09F1280900BF00BF2B
:1046B00039E006F019FD05F50070216A814202D249
:1046C000206A471B01E04FF400774FF40071504619
:1046D000FDF7F7FB00233A46514648461EF00CFB17
:1046E0004246394650461EF0DFFC804643461EA136
:1046F00001A8626AFCF70EFF2248006890F8840265
:1047000001280AD101A8FDF7A5FA83464FF47A7370
:104710005A4601A9092027F0BCF93D44B944B5F532
:10472000002F00DD05E0206AA84202D9206A002897
:10473000BFD100BF1348006890F88402012806D159
:104740004FF47A73022210A1092027F0A2F9606ABF
:10475000404505D1206A18B1206A0DB0BDE8F08F40
:104760004FF0FF30F9E700002020435243203A5B2E
:1047700025645D2C2043616C633A205B25645D0DEC
:1047800000000000640500200A0D00002DE9F74F2D
:1047900082B004468A464FF480190025A8460026B8
:1047A00000200190274600BF06F09EFC002338221F
:1047B000214648461EF0A0FA002800DA1AE037A188
:1047C000381DFDF7F3FB20B138A1381DFDF7EEFBD6
:1047D00038B94FF00108786ACAF80000B96A04983D
:1047E0000160B86A064409F138096D1C386808B1DF
:1047F000642DD9DB00BFC5EBC50006EBC006B8F1E0
:10480000010F03D116B1B6F5C22F03D9002005B0B0
:10481000BDE8F08F0020054680464FF480191BE06C
:1048200006F062FC05F50070B04202D9A6EB05085F
:1048300001E04FF4007800234246214648461EF02E
:104840005BFA002800DA09E041462046019A1EF092
:104850002BFC01904544C144B542E1D300BF002385
:104860000822214648461EF047FA04F1020BDBF805
:104870000010019881420BD12078AA2808D16078D5
:10488000882805D1A079AA2802D1E079882802D009
:104890004FF0FF30BBE70120B9E700002F696E64DD
:1048A00065785F636E2E68746D6C00002F696E64AE
:1048B00065785F656E2E68746D6C00002DE9F05FA1
:1048C00004464FF4C019002500270026AA46A0463A
:1048D00000BF06F009FC00233822214648461EF09E
:1048E0000BFA002800DA17E033A108F10400FDF705
:1048F0005DFB28B134A108F10400FDF757FB00B9B6
:104900000127D8F82800064409F138096D1CD8F8A9
:10491000000008B1642DDCDB00BFC5EBC50006EB71
:10492000C006012F03D116B1B6F5C22F02D900205F
:10493000BDE8F09F0020054607464FF4C0191AE075
:1049400006F0D2FB05F50070B04201D9771B01E0FB
:104950004FF4007700233A46214648461EF0CCF932
:10496000002800DA09E05246394620461EF09CFB3A
:1049700082463D44B944B542E2D300BF0023082239
:10498000214648461EF0B8F904F1020BDBF800009E
:1049900050450BD12078AA2808D16078882805D105
:1049A000A079AA2802D1E079882802D04FF0FF3000
:1049B000BEE70120BCE700002F696E6465785F6385
:1049C0006E2E68746D6C00002F696E6465785F658B
:1049D0006E2E68746D6C000010B504461649D1F84F
:1049E0006C12D9B11449D1F8701259B11349496800
:1049F00031B112490968491C114AB2FBF1F01AE0C1
:104A00000F4818E00D49496831B10C490968491C43
:104A10000C4AB2FBF1F00EE00A480CE000F02EF870
:104A200044B90649496831B104490968491CB0FBD9
:104A3000F1F000E0044810BD14003E4200F00140D7
:104A400000B4C40400D8B805006CDC0206498968CB
:104A5000C0F30B021143044A91601146C96841EA50
:104A60001031D1607047000000F00140024909692F
:104A70000143014A1161704700F001403EB502F068
:104A80002FF9054601202349C1F8E802284602F023
:104A90001FF901202049C1F864034FF47A71684678
:104AA00006F0F6F908E0684602F0D2F820B11BA043
:104AB00032F084FB00203EBD1748D0F8E403002804
:104AC000F1D01A48446A01201349C1F868034FF431
:104AD0007A71684606F0DCF908E0684602F0B8F83A
:104AE00020B10EA032F06AFB0020E4E70A48D0F8BB
:104AF000E4030028F1D10849C1F868030C48406874
:104B000010F01F0F01D1A003D5E743F6095104FBB4
:104B100001F0D0E7180044421C003E4231532054BB
:104B2000696D656F7574210A0000000000F0014096
:104B30001820024038B5144988682DF029FA044637
:104B400018E014F0FF0F08D0E0B2FF2805D00E499E
:104B500008682DF01DFAA04200D10AE020462DF091
:104B600017FA0090009800F02DF808B9009838BDA9
:104B700000BF641C0449C8682DF00AFAA042E0D2C4
:104B8000002000900098F2E7C441002070B505466F
:104B900000240CE0094901EB441006222946FCF7E9
:104BA000DBFF18B9054800EB441070BD641C0448D5
:104BB000006AA042EED80020F7E70000F83F00208E
:104BC000C441002001B500210BE0094800EB411071
:104BD0000069009A904203D1054800EB411008BDDE
:104BE000491C0448006A8842EFD80020F7E700001B
:104BF000F83F0020C441002010B5A0210F48FDF768
:104C000082F919F0C9FA0E480068B0B954F028FFCB
:104C10000B49086008460068007A40F020000968E7
:104C20000872432207490648006854F051FD0022EB
:104C300005490348006854F021FF10BDF83F0020EB
:104C400010160020E0BC060001B0000010B52020C6
:104C500006F056FC02480068401C0149086010BD7F
:104C60009405002010B504480068401E0249086001
:104C700001D106F045FC10BD9405002001490870E3
:104C800070470000DD08002010B50120FFF7A4FEEA
:104C900010BD00002DE9F04105460C4600270E2D01
:104CA0007DD2DFE805F07C07163D42494E54595F3E
:104CB0007077656A3D48006880B2461C3B480068D2
:104CC000C0F3024000EBC606FFF7DEFFB0FBF6F7CD
:104CD00068E0B4F5966F02D33548844202D94FF0AC
:104CE000FF375FE0FFF7D0FFE100B0FBF1F0401EBF
:104CF0002E49096860F30F012C480160FFF7C4FFDB
:104D0000E100B0FBF1F201FB1200C000E100B0FBDA
:104D1000F1F12648006861F312402449086041E03F
:104D20002448006800F003073CE02248006864F370
:104D300001002049086035E001201F49C1F8E00367
:104D400030E004F001001D49C1F86C022AE004F0D3
:104D500001001B49086025E004F001001749C1F873
:104D600070021FE004F001001549091D086019E0F8
:104D70001448806900F01F0714E01248806B00F0AF
:104D800003070FE00BE001200C49C1F87402C1F8E1
:104D90007C0207E001200A490831086002E04FF078
:104DA000FF3700BF00BF3846BDE8F0810460014016
:104DB000C0C62D001C60014020002C4214002C4273
:104DC00080062C42006001402DE9F04104460E4669
:104DD00015461F46701F2C49096860F301012A48D7
:104DE00001602DB1012029498860681EC86004E077
:104DF00001202649886000208860781E23490861C8
:104E000001204861FFF740FFE100B0FBF1F0401ED8
:104E10001F49096860F30F011D480160FFF734FF67
:104E2000E100B0FBF1F201FB1200C000E100B0FBB9
:104E3000F1F11748006861F3124015490860154800
:104E4000006820F00300134908600120124908623D
:104E5000C8631249C1F87002C1F8780200201049F5
:104E6000086003200121814042094FF0E02303EB59
:104E70008202C2F8001100BF01200849C1F86C028B
:104E80000020BDE8F08100000060014000002C42DD
:104E9000046001401C6001400060014014002C428D
:104EA00084062C4201460548006810B14FF0FF30DF
:104EB00070470348006908700120F9E780042C421C
:104EC0000060014030B50246002011E0114B1B6824
:104ED0002BB90346401CD35C0F4C236308E00F4BF7
:104EE0001B6823B901230E4C23600023236000BFFD
:104EF0008842EBD3074B1B1F1B684BB900BF074B06
:104F00001B68002BFBD10123054C23600023236089
:104F100030BD000004082C420060014004072C4210
:104F200080062C4210B50120FFF756FD10BD000091
:104F30000548017801F03F013F2901D10020704769
:104F400001F03F00FBE70000777F7C0070B504466E
:104F500001F0C6FE05460020144908601449C1F856
:104F600014029CB1012C10D0022C05D0032C14D1BA
:104F700003201049086011E000200E4908604FF03E
:104F800003000B49C1F80C0208E000BF00200949EA
:104F900008600749C1F80C0200E000BF00BF012013
:104FA00002490860284601F093FE70BD00220240CD
:104FB0000020024010220240FF2803D10021074AAE
:104FC000116070470121054A11600549096860F3C5
:104FD0008F31034A116000BFF3E70000B4160442AA
:104FE000B4200040FF2803D10021074A1160704718
:104FF0000121054A11600549096860F35241034ADD
:10500000116000BFF3E70000C0160442B420004066
:10501000FF2803D10021074A116070470121054A8A
:1050200011600549096860F30921034A116000BF56
:10503000F3E700009C160442B4200040FF2803D18F
:105040000021074A116070470121054A1160054996
:10505000096860F3CC21034A116000BFF3E7000048
:10506000A8160442B420004070B504460D46FCF773
:1050700095F8054850F82400A843034941F8240056
:10508000FCF78AF870BD000000200040B1F5004F29
:1050900075D02EDC802973D013DC082971D009DC8F
:1050A000B1F1004F6ED0012957D002295ED00429FA
:1050B00069D16AE010297DD020296FD04029F7D12D
:1050C00091E0B1F5006F6AD009DCB1F5807F67D05F
:1050D000B1F5007F77D0B1F5806FE9D1AEE0B1F5E1
:1050E000805F71D0B1F5005F6FD0B1F5804FDFD137
:1050F000C8E0B1F5000F69D017DCB1F5002F6FD013
:1051000009DCB1F5803F6CD0B1F5003F6AD0B1F554
:10511000802FCDD1DAE0B1F5801F76D0B1F5001F38
:1051200074D0B1F5800FC3D1F4E0B1F1006F6ED04F
:1051300009DCB1F1807F6BD0B1F1007F69D0B1F1B2
:10514000806FB5D10AE1B1F1805F75D0B1F1005F38
:1051500073D0B1F1804FABD124E19D4A52F82020A9
:1051600022F001029A4B43F820202EE1984A52F88F
:10517000202022F00202964B43F8202025E18AE00D
:105180003AE00EE017E11FE114E0914A52F82020C6
:1051900022F004028E4B43F8202016E117E056E07F
:1051A00038E08B4A52F8202022F00802884B43F85E
:1051B00020200AE1864A52F8202022F01002844B77
:1051C00043F8202001E12EE04AE052E0ABE0804AC3
:1051D00052F8202022F020027D4B43F82020F4E0FA
:1051E0007DE061E069E07A4A52F8202022F0400236
:1051F000774B43F82020E8E0754A52F8202022F04F
:105200008002734B43F82020DFE071E079E0AEE0EC
:1052100092E09AE06E4A52F8202022F480726C4BA1
:1052200043F82020D1E06A4A52F8202022F400728C
:10523000674B43F82020C8E0A2E0AAE0644A52F895
:10524000202022F48062624B43F82020BDE0604AB7
:1052500052F8202022F400625D4B43F82020B4E095
:105260005B4A52F8202022F48052594B43F8202008
:10527000ABE0574A52F8202022F40052544B43F836
:105280002020A2E0524A52F8202022F48042504BC3
:1052900043F8202099E04E4A52F8202022F40042A0
:1052A0004B4B43F8202090E0494A52F8202022F44A
:1052B0008032474B43F8202087E0454A52F82020AF
:1052C00022F40032424B43F820207EE0404A52F85C
:1052D000202022F480223E4B43F8202075E03C4AF7
:1052E00052F8202022F40022394B43F820206CE0B1
:1052F000374A52F8202022F48012354B43F8202000
:1053000063E0334A52F8202022F40012304B43F875
:1053100020205AE02E4A52F8202022F480022C4B02
:1053200043F8202051E02A4A52F8202022F40002BB
:10533000274B43F8202048E0254A52F8202022F04D
:105340008072234B43F820203FE0214A52F820206E
:1053500022F000721E4B43F8202036E01C4A52F81F
:10536000202022F080621A4B43F820202DE0184ABA
:1053700052F8202022F00062154B43F8202024E050
:10538000134A52F8202022F08052114B43F820207B
:105390001BE00F4A52F8202022F000520C4B43F839
:1053A000202012E00A4A52F8202022F08042084BC6
:1053B00043F8202009E0064A52F8202022F000425B
:1053C000034B43F8202000E000BF00BF70470000FF
:1053D00000200040FF2803D10021134A11607047CC
:1053E0000121114A116020B1012809D0022817D1EA
:1053F0000EE000210D4A11600B4A121D116010E0F1
:1054000000210A4A11600121074A121D116008E0BB
:105410000121064A11600021034A121D116000E0BB
:1054200000BF00BF00BFDAE78C16044250170442E9
:1054300010B50446FF2C03D100201849086010BDA8
:1054400001201649086024B1012C12D0022C20D171
:1054500017E00020124908601049091D0860FFF795
:1054600075FD1048006820F002000F49C1F83401B2
:1054700010E000200A49086001200849091D086061
:1054800008E001200649086000200449091D086061
:1054900000E000BF00BF00BFD1E700009416044247
:1054A0005417044234010240000002400146024801
:1054B00050F82100704700000020004030B504463D
:1054C0000D46A11CC8B2294600F06EF930BD30B5BA
:1054D00004460D4629462046FFF7D8FD30BD70B57D
:1054E00004460E461546012D05D1611CC8B2314651
:1054F00000F05AF904E0611CC8B23146FFF7C6FD5E
:105500003146204600F050F901211E2000F034F908
:1055100070BD00B50246D11CC8B2FFF7C7FF00BD81
:1055200038B501231B4A1C49142023F0B5FE80B175
:1055300025F040FE044640F24F40184B224618A189
:105540000090082000F02CFD1AA1082000F028FD92
:1055500038BD1948006890F89002C0B10123174A7D
:105560000D49C031172023F097FE80B125F022FEAF
:10557000044640F25740094B224609A100900820FA
:1055800000F00EFD0BA1082000F00AFDE0E700BFCF
:10559000DEE7000049990200400000088171060022
:1055A0005B202564206572726F722025732025644C
:1055B0005D0000000A00000064050020B50502003F
:1055C00010B50446FF2C03D100206949086010BDC6
:1055D0000120674908606748006864F31550654911
:1055E000086034B1012C2DD0022C5ED0032C7DD16B
:1055F00086E004210846FFF737FD04210620FFF767
:1056000033FD04210720FFF72FFD10210420FFF7B1
:105610002BFD10210620FFF727FD10210720FFF7A3
:1056200023FD08210420FFF71FFD08210620FFF7B6
:105630001BFD08210720FFF717FD0821052000F0BA
:10564000A1F891E04FF400210420FFF70DFD4FF485
:1056500000210620FFF708FD4FF400210720FFF787
:1056600003FD4FF400110420FFF7FEFC4FF400117E
:105670000620FFF7F9FC4FF400110720FFF7F4FCB8
:105680004FF480110420FFF7EFFC4FF48011062047
:10569000FFF7EAFC4FF480110720FFF7E5FC4FF419
:1056A0008011052000F06EF85EE020210E20FFF74B
:1056B000DBFC20211020FFF7D7FC20211120FFF771
:1056C000D3FC08210E20FFF7CFFC08211020FFF7A4
:1056D000CBFC08211120FFF7C7FC10210E20FFF79B
:1056E000C3FC10210846FFF7BFFC00E03BE010219F
:1056F0001120FFF7B9FC10210F2000F043F833E030
:105700004FF480110E20FFF7AFFC4FF480111020F2
:10571000FFF7AAFC4FF480111120FFF7A5FC4FF40E
:1057200080010E20FFF7A0FC4FF480011020FFF74E
:105730009BFC4FF480011120FFF796FC4FF4001101
:105740000E20FFF791FC4FF400111020FFF78CFCA6
:105750004FF400111120FFF787FC4FF400110F20C8
:1057600000F010F800E000BF00BF00BF2FE700000E
:10577000CC160442B4200040014A42F82010704781
:105780000020004070B504460D46FBF707FD0548B4
:1057900050F824002843034941F82400FBF7FCFC9F
:1057A00070BD000000200040B1F5004F77D02EDC26
:1057B000802975D013DC082973D009DCB1F1004FC2
:1057C00070D0012957D002295FD004296BD16DE038
:1057D000102969D0202968D04029F7D199E0B1F586
:1057E000006F77D009DCB1F5807F74D0B1F5007F10
:1057F00072D0B1F5806FE9D1BAE0B1F5805F6CD0BD
:10580000B1F5005F6AD0B1F5804FDFD1DCE0B1F5D2
:10581000000F6ED017DCB1F5002F6BD009DCB1F5AD
:10582000803F68D0B1F5003F70D0B1F5802FCDD169
:10583000F6E0B1F5801F6AD0B1F5001F68D0B1F570
:10584000800FC3D118E1B1F1006F76D009DCB1F15E
:10585000807F73D0B1F1007F71D0B1F1806FB5D18D
:1058600036E1B1F1805F6BD0B1F1005F69D0B1F189
:10587000804FABD158E1B94A52F8202022F0010202
:10588000521CB64B43F8202065E1B44A52F8202060
:1058900022F00202921CB14B43F820205BE19EE013
:1058A00041E00DE04BE155E119E025E0AB4A52F84B
:1058B000202022F00402121DA84B43F820204AE1C8
:1058C000A64A52F8202022F008020832A34B43F8DF
:1058D000202040E157E035E03FE05FE069E09F4A8B
:1058E00052F8202022F0100210329C4B43F8202066
:1058F00031E1CCE09FE07DE0984A52F8202022F090
:1059000020022032954B43F8202024E17DE09DE0E9
:10591000A7E0924A52F8202022F0400240328F4BFA
:1059200043F8202017E18D4A52F8202022F080020F
:1059300080328A4B43F820200DE1D4E0B2E0BCE095
:10594000DCE0E6E0854A52F8202022F4807202F57D
:105950008072824B43F82020FDE0804A52F82020DC
:1059600022F4007202F500727C4B43F82020F2E032
:105970007A4A52F8202022F4806202F58062774B46
:1059800043F82020E7E0754A52F8202022F4006214
:1059900002F50062714B43F82020DCE06F4A52F8B8
:1059A000202022F4805202F580526C4B43F82020D4
:1059B000D1E06A4A52F8202022F4005202F5005247
:1059C000664B43F82020C6E0644A52F8202022F4B7
:1059D000804202F58042614B43F82020BBE05F4AE1
:1059E00052F8202022F4004202F500425B4B43F8BB
:1059F0002020B0E0594A52F8202022F4803202F5EB
:105A00008032564B43F82020A5E0544A52F820201B
:105A100022F4003202F50032504B43F820209AE085
:105A20004E4A52F8202022F4802202F580224B4B6D
:105A300043F820208FE0494A52F8202022F4002227
:105A400002F50022454B43F8202084E0434A52F8F7
:105A5000202022F4801202F58012404B43F82020CF
:105A600079E03E4A52F8202022F4001202F500129A
:105A70003A4B43F820206EE0384A52F8202022F4B6
:105A8000800202F58002354B43F8202063E0334A60
:105A900052F8202022F4000202F500022F4B43F8B6
:105AA000202058E02D4A52F8202022F0807202F186
:105AB00080722A4B43F820204DE0284A52F82020DB
:105AC00022F0007202F10072244B43F8202042E0E1
:105AD000224A52F8202022F0806202F180621F4B9D
